:10000000404C0020DD2700009B790100B127000053
:10001000B1270000B1270000B12700000000000058
:100020000000000000000000000000001924000093
:10003000B127000000000000C5230000B127000028
:10004000C9240000E5040100C9240000C9240000FF
:10005000C9240000C9240000C9240000C9240000EC
:10006000C9240000C9240000C9240000C9240000DC
:10007000C9240000C9240000C9240000C9240000CC
:10008000C9240000C9240000C9240000C9240000BC
:10009000C9240000C9240000C9240000C9240000AC
:1000A000C9240000C9240000C9240000C92400009C
:1000B000C9240000C9240000C9240000C92400008C
:1000C000C9240000C9240000C9240000C92400007C
:0C00D000C9240000C9240000C92400005D
:0400DC00FFFFFFFF24
:1000E00053B94AB9002908BF00281CBF4FF0FF319F
:1000F0004FF0FF3000F00CB8ADF1080C6DE904CE04
:1001000000F008F8DDF804E0DDE9022304B07047F0
:10011000704700BF2DE9F04786468C460846089E8A
:10012000154674461946002B40F0C2808542B2FA4B
:1001300082F245D94AB1C2F1200300FA02FC2EFA3C
:1001400003F3954043EA0C0C94404FEA154EA8B2D5
:10015000BCFBFEF8230C0EFB18CC08FB00F943EAAD
:100160000C43994528D9EB1808F1FF3704D299457B
:1001700002D9A8F102072B44A3EB0903A4B2B3FBF5
:10018000FEFC0EFB1C330CFB00F044EA0344A042CF
:1001900014D92C190CF1FF3304D2A04202D9ACF1CE
:1001A00002032C44241A43EA07401EB1D440002322
:1001B00034607360BDE8F0874746DDE76346F1E7EA
:1001C00092BB431B01214FEA154EAFB2B3FBFEFCBD
:1001D000200C0EFB1C330CFB07F840EA0343984548
:1001E00062D9EB180CF1FF3004D2984502D9ACF17A
:1001F00002002B44A3EB0803A4B2B3FBFEFC0EFBEE
:100200001C330CFB07F744EA0344A7424ED92C19D0
:100210000CF1FF3304D2A74202D9ACF102032C4403
:10022000E41B43EA0040C0E7C2F1200320FA03F1D7
:10023000954090402EFA03F303434FEA154EAFB2B8
:10024000B1FBFEFC0EFB1C10190C0CFB07F841EA7D
:100250000041884504FA02F422D969180CF1FF30F4
:1002600004D2884502D9ACF102002944A1EB08016F
:100270009BB2B1FBFEFC0EFB1C110CFB07F743EA23
:1002800001439F420ED9EB180CF1FF3104D29F427B
:1002900002D9ACF102012B44DB1B41EA004192E799
:1002A0006046E3E76146F7E76046A3E76346B7E7E2
:1002B000834206D916B9002108467BE7C6E900E06B
:1002C000F9E7B3FA83F78FB9834201D3724508D8AF
:1002D000BEEB020460EB030301209C461EB9002123
:1002E00068E73846FAE7C6E9004CF8E7C7F1200CA2
:1002F000BB4022FA0CF41C432EFA0CF120FA0CF34A
:10030000B84001434FEA14490EFA07F5B3FBF9F878
:100310001FFA84FE09FB18300B0C08FB0EFA43EAA7
:1003200000439A4502FA07F240D9E31808F1FF307A
:1003300004D29A4502D9A8F102002344A3EB0A0390
:1003400089B2B3FBF9F809FB183308FB0EFE41EA4A
:1003500003418E452CD9611808F1FF3304D28E4534
:1003600002D9A8F10203214443EA0040A0FB02980D
:10037000A1EB0E014145CE46434602D306D14D4581
:1003800004D2B9EB020E68EB04030138002EA6D0AC
:10039000B5EB0E0261EB030101FA0CFC22FA07F344
:1003A0004CEA0303F940C6E9003198E74046C5E747
:1003B0004346D9E7000000002DE9F843D0E90C35A9
:1003C000D0F82C805C193034A0450F46164619D859
:1003D0001D4DA3FB05011AA3D3E90023FFF780FEFF
:1003E0000346A4EB0800A0FB050123F07F4414A3FF
:1003F000D3E90023FFF774FE20F07F403C603060BB
:10040000BDE8F883DFF840900DA3D3E90023A8FBF3
:100410000901FFF765FE044605F1300008A3D3E9A2
:100420000023A0FB0901FFF75BFE24F07F4420F0CE
:100430007F403C603060BDE8F88300BFAFF30080D0
:100440008D49FD1A0700000000CA9A3B0000000019
:10045000002800F03D812DE9F04FCB4C94F86A3034
:10046000DA078DB000F1718194F8292094F83530C5
:1004700004EB820204EB8303D66AD3F838800EB310
:10048000354615F8020BC0F3801007F039FC062240
:100490000146284617F0B2FA33785B0606D50621E6
:1004A000284606F087F8002800F05181454615F8E7
:1004B000020BC0F3801007F023FC062201462846F9
:1004C00017F09CFA337813F00E0F40F08F80236AF8
:1004D0001BB10C200DB0BDE8F08F08F0EDF881469F
:1004E000002800F0428108F0F3F88246002800F06E
:1004F00039810AF0DDFE0546002800F03881D0F889
:1005000088004FF6FF732B8505F11C0B002800F0C7
:10051000248105F17C0205F1780106F057F8B5F861
:10052000763023F4EF6323F0070343F4887343F03A
:100530000103A5F8763095F8393003F03F0363F0F6
:100540007F0385F8393095F88E3023F0070385F85E
:100550008E3095F83C3023F00703002785F83C30B7
:100560004FF4C023C5F880312846C5E91277C5F895
:100570008870A5F88C706F86C5F82E7085F83B7072
:100580002F65A5F88671A5F87C710CF08DFF85F8B4
:100590004871C5F84C910BF015F995F88C3160F362
:1005A000020385F88C310BF013F995F88C3160F368
:1005B000C50385F88C3195F8783167F3410385F8E8
:1005C0007831012128460BF00FFD05F1D4000CF025
:1005D00055FDC4E9189AC4F820B0C5E905772F7015
:1005E000ED6110F0D9FC002840F0B38094F824307D
:1005F0000121C3F342030DF12B008DF82B3006F0DF
:100600006FF90246002865D098F8011030460AF0CC
:1006100081F95E49B4F8687000253123A360C4E90C
:10062000055557A3D3E9002325706560E560A0FB5D
:100630000101FFF755FD206107F01EFB00F10908DD
:100640003FB9357805F00F05A5F10105B5FA85F537
:100650006D0994F82400236965F3000010F001058A
:1006600084F824003DD04A49DFF828C14A4F099157
:1006700000200BAE04930193CDE90504CDE90200FF
:1006800000900225486008960797C1F800C04FF017
:10069000FF0C81F80DC0434603212A460B9507F055
:1006A00089F9314608F0A8F8A0B93C4905914AF209
:1006B000D8330093CDE90300CDE9010007970896F0
:1006C00006944346012203210B9507F0C5F931E05A
:1006D0000AF072B8236A002B3FF4FBAE0AF02AF846
:1006E000F7E62B4A2E48049303F24713CDE905544D
:1006F000029591215360A7FB000301FB0731254BB5
:1007000009921360244B0793FF2353734FF6FF7333
:10071000022703930BAE1AA3D3E900230B97089685
:10072000FFF7DEFC4346CDE900503A462846032158
:1007300007F040F9314608F05FF80028CAD194F874
:100740006A3043F0010384F86A300020C2E61220C8
:10075000C0E609F0EFFF0320BCE605F18000C5F814
:100760008800D6E6484607F0ADFF0720B2E65046BF
:1007700007F0B4FF484607F0A5FFF6E7AFF30080A7
:100780008D49FD1A07000000541B002000CA9A3B47
:10079000401B002091A90000E57D0000DDA40000C1
:1007A000002AE7840000000070B590F824308AB079
:1007B000C3F342030D46044601210DF12300164602
:1007C0008DF8233006F08CF87178024628460AF03E
:1007D000A1F81D491AA3D3E90023A0FB0101FFF7EB
:1007E0007FFC23699842054622D21B1A00220192FF
:1007F000164A02930221164B0991A21ACA40A3FB82
:100800000232D20800230A4409AE12490591CDE90B
:1008100003330321D2B206960093184607F094F9E9
:10082000314607F0E9FF38B9256100200AB070BDF4
:10083000FBD9C21A0023DAE70C200AB070BD00BF52
:100840008D49FD1A0700000000CA9A3B541B002086
:10085000F712DA4BE57D00002DE9F04F05468BB02D
:100860008B46012002219A46144612F0C7FA002254
:1008700002218146012005F0F9FE39494FF4CC727E
:10088000284605F083FEC61CF6B2364B009532466C
:100890000121002007F072F910F0FD0F0CD0324A50
:1008A0003249334840F60A0316F01BFE404080F3FD
:1008B00011884FF0030002DF2E4BA4FB03482046B3
:1008C00025A3D3E900234146FFF70AFC08950695C6
:1008D0002B690493284B20F07F47A7FB0331E01AD4
:1008E000264B07934FF00702254B059302FB071198
:1008F0004FF6FE7368EB010103934FF47A72002305
:10090000FFF7EEFBCDF800B0CDE90170534632465B
:100910000121002007F0A0F810F0FD0F0CD0124AC2
:100920001249134840F61F0316F0DBFD404080F3E8
:1009300011884FF0030002DFB9F1000F02D10BB0B4
:10094000BDE8F08F0122022110460BB0BDE8F04F48
:1009500005F08CBEAFF300808D49FD1A0700000042
:10096000580E002059B2000060BD010024BE0100F5
:1009700044B8010000CA9A3B8D49FD1A01B200003B
:10098000F5010100000000002DE9F043C469228D4B
:100990004FF6FF739A428DB000F0888005462046DE
:1009A0000CF0C2FF95F82830012B00F00A81022BD1
:1009B00000F0FD80002B00F0DC8094F84871002FDF
:1009C00040F0F880E68DB4F83080002E71D1AA8C0A
:1009D00008F101060023CDE90A33B6B2002A70D02F
:1009E00094F93930002BC0F243810023A4F88231FE
:1009F00095F82630D90740F1EA800023A4F8863123
:100A00000DF12702314620460CF088FD743000F0CD
:100A10004181B4F880312BB1B34240F208819B1B75
:100A2000A4F88031B4F87C312BB1B34240F2F680A7
:100A30009B1BA4F87C31258E17B9A84500F0E580F2
:100A40000135ADB294F8D13013F0010659D1DDE98A
:100A50000A130A46002B40F0E880002900F0D780F6
:100A60001E461846228DE4690694CDE903570332E9
:100A7000A54D0290CDE90016D2B2012100200595C6
:100A800007F062F810F0FD0F10D007F0F5FE844279
:100A90000CD09E4A9E499F4840F2ED4316F021FD3E
:100AA000404080F311884FF0030002DF0DB0BDE835
:100AB000F083AA8C46440023CDE90A33B6B2002A5B
:100AC0008ED195F82630DA0797D4B4F88231002B0E
:100AD0007DD0B34240F2F6809B1BA4F88231B4F87B
:100AE0008631002B8CD09E4280F0DA809B1B9BB21B
:100AF0000022062BA4F88631228600F2A880012766
:100B00007EE794F939206FF30003002A84F8D1308E
:100B100073DB94F87600C0F3C00100F0070010F01A
:100B20009DF8B4F86E30B4F86C10194401F2AD11B0
:100B30000844794972A3D3E90023A0FB0101FFF720
:100B4000CFFADDE90A1320F07F422069226190424A
:100B500035BF161A801A002000260A46002B81D1C4
:100B600056EA010C7FF47EAF002850D019461E468D
:100B700078E794F88E3003F01803182B7FF41DAF3C
:100B8000A18DB4F87E218B1D9A42C4BF931F5B1ABE
:100B9000B4F87A11CCBF9BB21346994200F08C8016
:100BA000A4F87A31A4F87C31A4F8802105E73D2728
:100BB00084F84871394620460DB0BDE8F0430AF08C
:100BC000DFBE0023A4F88031A4F87C31F5E6B4F848
:100BD0008631002B87D1628DB4F8843140F2E24136
:100BE00001FB02F242F2107101FB0323013BB3FB54
:100BF000F2F39BB2A4F8863173E794F877000121F1
:100C000000F0070010F02CF88BE73D461AE7002DA6
:100C10004BD0002611463046334623E70023A4F884
:100C20007C3120460CF0F4FC05E730461AE707F06B
:100C30009BFD014600283BD00023A4F88031238D82
:100C4000C3801B230371006807F058FDEAE694F99E
:100C500039309342BFF6D4AEB8F1000F7FF44FAFF6
:100C6000D4F870315A08DB0743D4C4F87021C7E6C2
:100C700028460AAA0BA904F1D409FFF79DFB4846B0
:100C80000CF03EFA18B348460CF03AFA18B30023B9
:100C90002386AAE69DF8271020460AF071FE05E794
:100CA000082120460AF06CFE00E7002FB1D1FDE6D6
:100CB0000123A4F88031B5E6B4F8801100297FF44F
:100CC0007CAE6FE73E2120460AF05AFEEEE6FF209A
:100CD0000AF016FED7E70246D4E91E0105F08EFCA5
:100CE0000028D4D194F83C30580744BFA38D238604
:100CF0007BE642F00042C4F8702100E7AFF30080C9
:100D00008D49FD1A07000000C1B1000060BD01005F
:100D100088BE010044B8010000CA9A3B00000000F0
:100D20002DE9F04F87B0CDE90423BDF844200378C6
:100D30000292BDF84820BDF84080BDF84C50468E68
:100D4000B0F82E90B0F810B1019104460392002B38
:100D500000F08E80013EB6B2A368D4F80C71721B0D
:100D600092B2002B009209DAE168626823F0004336
:100D700091422CBF7F18BF18A360FF1A009A638DA1
:100D800013FB02F39BB2B3FBF8F218FB02F080B244
:100D900083421FFA82FA5AD2C01A40F2E2425E49F6
:100DA00002FB00F0A0FB010159A3D3E90023FFF7E8
:100DB00097F920F07F400744D94494F839304D44E6
:100DC000AD1B554440F2E246DB09E58506FB08F51C
:100DD00052D1524A5249534840F6950316F081FBCE
:100DE000404080F311884FF0030002DF0026A9463F
:100DF000029BA385039BA4F8843129462046A4F8CE
:100E00002A800CF0C5FB484BA18D2B44881DB3FBF9
:100E1000F5F39AB29042A4F87E2102D2521A063A11
:100E200092B2019BA4F87A2113B10023A4F8863171
:100E30003B464A4631462046FFF70EFD94F878318E
:100E400043F0010384F8783107B0BDE8F08F08FB68
:100E50001231314840F2E24389B203FB01F1A1FBB8
:100E600000012BA3D3E90023FFF73AF93F1AA3E7C8
:100E70004E445E44B6B26FE7226C0099A36CDFF873
:100E800098B002FB1133A36410F0D6F8814694F8B1
:100E90006C01C0F3420010F0D1F8049B814406FBC2
:100EA00003F305FB09F9236509F574291F4B09F2C2
:100EB0003F29A3FB09394FEA994303FB0AF0236456
:100EC000A5EB0309A36C6A080344963A934228BF32
:100ED0001346C4E911230023C4F87431A0FB0B01AD
:100EE0000BA3D3E90023FFF7FBF8114B059A3F1A38
:100EF000A3FB0230800A06FB00F005A3D3E9002320
:100F0000A0FB0B01FFF7ECF8064671E7AFF300809A
:100F10008D49FD1A0700000000CA9A3B60BD010020
:100F200008B9010044B801007FC3C90183DE1B4337
:100F30005917B7D1000000002DE9F04F0B68D3F826
:100F40000090037F93B09046C3F380131546044688
:100F500006220E4600F11E0110A80B9358F8087BDC
:100F600016F04CFD10A906220EA816F047FD2146EA
:100F7000404651F82EBB032205F1040A16F03EFD4F
:100F800005F11808042204F12A01504616F036FD36
:100F9000052204F13A01404616F030FD4046052195
:100FA00005F09EFC6B7F00F03F0060F305036B775C
:100FB00094F83F30C3F30402AA77A28EEA81012895
:100FC00008D903F01F031B3303F01F030B2B01D8B9
:100FD00092B2BAB90022C9F8142095F8203062F311
:100FE000000385F82030E568012658462146267121
:100FF00007F07AFB28682E71294607F07FFB13B0B3
:10100000BDE8F08F336800215960E38EEA892B82B6
:1010100040F2E24303FB02F83846638E0D930CF076
:10102000CBFA94F83F2097F86C11520962F3430110
:1010300087F86C1110F000F80C9097F86C01C0F371
:1010400042000FF0FBFF0C9A104408FB00F0A84A86
:1010500000F5742000F23F20A2FB00204FEA580266
:10106000800C963A6862AA6294F8312040F2E2431A
:1010700002FB03F3AB63238FA7F884314146384664
:101080000CF086FA9B4B9C4AC7F888214344B3FB7B
:10109000F8F39AB2A7F87E21298A881D824204DDDE
:1010A000C1F57F41FA310A4492B2A7F87A2151463C
:1010B000042207F5B87016F0A1FC234613F81C2F84
:1010C000C2F340120C92DA0700F1ED809DF82C304B
:1010D000A3774FF480730EA9A383062204F11F00A7
:1010E00016F08CFCEB89E3842B8A2385B7F88431D6
:1010F000638597F86C31C3F3420384F82C3038468B
:101100000AF0E2F8A881E08021465846746807F0AA
:10111000EBFAAB89E3801C2323710C9BD4F800B05D
:10112000002B40F0B6800C9B23772146584607F0F1
:10113000E5FA95F85B00B5F850A0B5F852400121EA
:1011400000F007000FF08CFD544404F20D24DFF88A
:10115000ACA18346312320180024A0FB0A01BB6008
:101160007C6061A3D3E90023FC60FEF7B9FF20F0A7
:101170007F403861F3680D996D6A40F2E2420120C8
:10118000A8EB050502FB01382246022105F06EFAA4
:10119000484609F0AFFD08F2B2480246A8EB0B083A
:1011A000A8FB0A01924650A3D3E90023FEF798FF5B
:1011B000CDF80490B3685249009120F07F480AF1BD
:1011C00002023A3BD2B220464344012106F014FD0C
:1011D000012875D099F82430DB0752D438460AF03C
:1011E00073F8464BA5FB03A904463FA3D3E90023AC
:1011F00050464946FEF774FF424BB668424A079292
:1012000020F07F45A5FB0331BAEB03003F4B05936C
:1012100040F2CD13069708933B694FF0000BCDE9E0
:1012200003B34FF0070303FB051169EB01014FF412
:101230007A720023FEF754FF03343A3EE4B2CDE95C
:101240000150CDF80080334622460121584606F071
:1012500003FC10F0FD0F0CD02D4A2E492E484FF400
:10126000E77316F03EF9404080F311884FF0030019
:1012700002DF01220221104605F0F8F913B0BDE8A3
:10128000F08F0023012200931846114606F076FCE9
:10129000A4E76B7F43F040036B7750460FF0ACF848
:1012A0000123E88340E71A4A1C491B48F72316F03C
:1012B00018F9404080F311884FF0030002DF05E782
:1012C00007F0DAFA814585D0114A1549124840F2F3
:1012D000752316F006F9404080F311884FF00300A3
:1012E00002DF77E7AFF300808D49FD1A07000000A9
:1012F00083DE1B437FC3C901404B4C0000CA9A3BAD
:10130000B90101008D49FD1A89010100F5010100B3
:1013100070C2010024BE010044B8010050BB0100AE
:10132000CCC201000000000010B5144606F0A4FC79
:10133000214606F0A3FC034610F4000003D1DC1C98
:10134000092C02D810BD002010BD114A11491248C5
:1013500040F2D91316F0C5F810480721A4FB00038A
:1013600001FB043108A3D3E90023FEF7B9FE0C49C1
:1013700002460C4816F0B5F8404080F311884FF053
:10138000030002DF012010BD00CA9A3B00000000EC
:101390000CC3010008B9010044B801008D49FD1AD1
:1013A00090C4010030C40100014815F054BD00BFD5
:1013B00078C9010011B1034815F04DBD024815F080
:1013C0004ABD00BF96C90100B6C9010010B50C485E
:1013D00015F00BFD98B90B4815F007FD78B90A48D0
:1013E00015F003FD58B9094B9C68802163690748D3
:1013F000984700214FF4004015F060FAF5E710BD62
:10140000D8B30100D0B30100C8B301003CB0010063
:1014100070B5002088B002F031FA064630B10146BE
:10142000144808B0BDE8704015F015BD124D1348C2
:1014300015F011FD00F050F80FCD03AC0FC42B6870
:1014400023600F4900963346022203A802F0FCFDF8
:10145000014650B10B4815F0FEFC00214FF400404E
:1014600015F02CFA00F056F8F7E7074815F0F3FCF2
:10147000F3E700BFC1C9010060B30100E1C9010089
:10148000E0B30100F8C901001ECA010038B50C46DE
:10149000BDF81000E5681C46C3180A2B114608DC8D
:1014A0002246284416F0AAFA034B01221A7020465D
:1014B00038BD6FF00604FAE7242600201FB5052486
:1014C0000294044C0194BDF81840009418F003F8FD
:1014D00004B010BD54CA010013B50D4C40F2DF73C7
:1014E00002220DF106012046ADF8063016F086FA0C
:1014F0000523A3701E23E3700C22A3710123227124
:10150000E3712D22002362712372637202B010BD59
:101510002526002010B50C4B1A7886B08AB100241D
:101520002146182268461C7016F073FA074B019387
:10153000074B029369460A232046ADF80C3004F0AD
:1015400077FE06B010BD00BF2426002004B40100C1
:1015500025260020014B1B68184700BF8001002092
:10156000014B1860704700BF8001002007B50B4693
:10157000002102460091034800F014F903B05DF821
:1015800004FB00BF551500002DE9F047058B04460C
:101590002807904611D4022905F0070540F0CD80B8
:1015A000204615F034FE78B10138218B042811D87B
:1015B000DFE800F0C3106D85950001290CBF45F0F0
:1015C000100545F02005258388F31188BFF36F8F40
:1015D000BDE8F08701F0070AAA4500F0A6800027C1
:1015E000B9463E46A368002B00F0BD8041F00801DB
:1015F000218388F31188BFF36F8FA168002900F061
:10160000BB800D68002900F0B780D1F80480334614
:1016100052462046C047002D76D02B6829461D46ED
:10162000F0E701F007035A1F012A1BD8002221F01E
:101630000701062B276889B2C4E9002209D13B467D
:1016400003E0628B013262831B68002BF9D141F009
:1016500002012183204615F0DAFD00287BD041F0FD
:10166000200177E0042B0AD121F0070189B2218300
:10167000204615F0CCFD10B141F020012183218BD3
:1016800001F0070AAA4550D00027B946AAE7236906
:1016900021F0070141F00601062DD3F800902183C7
:1016A0002DD1B9F1000F40D041F00801218388F31A
:1016B0001188BFF36F8F3A492046C84729E021F0CF
:1016C0000701236941F0040189B2042DD3F8049085
:1016D0002183E6D000273E464FF0040A82E721F03E
:1016E0000701236941F0050189B2052DD3F808905F
:1016F0002183D6D000273E464FF0050A72E7002727
:101700003E464FF0060A6DE72B4687E7B9F1000F1A
:10171000D1D14FF02003EFF3118883F31288BFF388
:101720006F8F238B23F008032383258BEA062ED5A6
:1017300025F01003238305F007056669218B002E31
:10174000BFF66FAF00232768C4E9003321F007011B
:1017500041F001012183218B01F0070AAA454FF0D6
:1017600000097FF43FAF002F9BD041F00801218397
:1017700088F31188BFF36F8F002FC7D03D683946BB
:1017800033465246204615F06EFD2F46F4E7AB0671
:101790007FF51AAF25F02003238305F00705FFE648
:1017A000937201002DE9F04F814695B08B461746A4
:1017B0001C460025387808B9284658E37B1C2528A4
:1017C000039306D05946C8470028C0F2508301351C
:1017D000FBE1182200210EA816F01BF97B78252BBF
:1017E0007DD00023781C98469E469C461E460146A6
:1017F00010F8012B2B2A00F0A18000F29880202AFB
:1018000000F09F80232A00F09F802BB19DF840308C
:1018100043F040038DF84030B8F1000F05D09DF83B
:10182000403043F020038DF84030BEF1000F05D06A
:101830009DF8403043F010038DF84030BCF1000FAC
:1018400005D09DF8403043F008038DF840302EB1AC
:101850009DF8403043F004038DF840309DF840304F
:1018600003F04400442803D16FF386138DF8403011
:101870009DF840302A2A43F080038DF840307FD114
:101880009DF8412042F001024B1C8DF841201A784E
:101890002E2A9DF841200CBF0121002161F3410255
:1018A0008DF8412078D15A782A2A6ED0013300224F
:1018B0004FF00A0C194611F8010BA0F13006092E61
:1018C00040F295809DF840101292C1F3400040EA2A
:1018D000D2700A4660F341028DF840205CE0BA1CE9
:1018E00003928DF843309DF84130DA0740F12E81A4
:1018F00054F8048BB8F1000F07DA9DF8402042F04D
:1019000004028DF84020C8F100085E0740F12781ED
:1019100054F804ABBAF1000F80F226819DF84130F3
:101920006FF341038DF841304FF0FF3A1CE12D2A4F
:101930000DD0302A7FF469AF012358E74FF0010C36
:1019400055E74FF0010E52E74FF001084FE701262F
:101950004DE70EFB0262303A0346184610F8016B61
:10196000A6F1300CBCF1090FF3D999428FD09DF844
:1019700040101192D20F62F341018DF8401086E7BA
:101980000B4600224FF00A0EE7E79DF8412042F097
:1019900004028DF8412002331A786C2A47D02BD8E4
:1019A000682A31D06A2A4BD04C2A51D01A4612F8F4
:1019B000013B0392782B9DF841208DF8433000F2D3
:1019C000BE806D2B51D8692B00F2B980572B67D898
:1019D000412B03D0453B022B00F2B1809DF84230F1
:1019E000042262F302038DF84230012373E00CFB02
:1019F0000202303A0B465DE7742A25D07A2AD5D107
:101A00009DF8412006210CE05A78682A9DF8412073
:101A100006D1012161F3C6028DF841200233C5E7EA
:101A2000022161F3C6028DF841200133BEE75A78E6
:101A30006C2A9DF8412001D10421EBE70321F0E756
:101A40009DF841200521ECE79DF841200721E8E7BA
:101A5000BDF8402022F4F04222F0020242F480421B
:101A600042F00202ADF84020DFE76E3BD9B201231D
:101A70008B4040F282410B4237D113F0240F51D1F9
:101A8000D8075CD59DF84230032161F302038DF83D
:101A9000423002F07803A3F140014B424B411AE07F
:101AA000A3F15801C9B2012000FA01F111F4624F0B
:101AB00094D140F6010631421DD111F4043F3ED0CD
:101AC0009DF8423060F3020302F07802402A8DF85C
:101AD000423034D000239DF84020C2F340010B4334
:101AE00063F341028DF84020FDE69DF8423002216B
:101AF00061F30203E8E79DF84210022002F0780249
:101B000060F30201402A8DF8421002BF9DF8401098
:101B100041F001018DF84010632BDBD1131E18BF7B
:101B20000123D8E79DF84230032161F3020312F04C
:101B3000780F8DF8423014BF01230023CBE79DF8C6
:101B4000403043F001038DF84030C3E79DF9402059
:101B5000002AB4BFDDF844804FF0FF38D5E698077F
:101B60007FF5E2AEDDF848A09DF841100023CDE9F5
:101B700011339DF8423003F00703012BC1F3C30179
:101B800033D1CB1E042B04D8DFE803F021464621D5
:101B90002100236801294FEAE372CDE90E321CD1FE
:101BA0009DF93830DA17CDE90E3204349DF8403013
:101BB00013F0030650D0039B3A465946484615F0A9
:101BC00079FC0028C0F253810544039FF2E554F8E4
:101BD000043BDA17CDE90E32E8E70229E5D11AB263
:101BE00043F3C033CDE90E23DFE7022B24D1CB1E14
:101BF000042B04D8DFE803F018101018180001298E
:101C000054F8043B4FF0000214D00229CDE90E3203
:101C1000CCD19BB20E93C9E7073424F00704F4E853
:101C20000223CDE90E23C1E754F8043B0E930023B1
:101C30000F93BBE7DBB2CDE7042B08D1073424F0C8
:101C40000704D4E900230834CDE90E23AEE7032BC3
:101C5000ACD154F8043BDDE79DF843007828B4D8B4
:101C600062281CD825283FF4ADAD5828ADD10DF120
:101C700036030093DDE90E0108AB10AA15F0D4FB82
:101C8000BAF1000F074680F29A80002F9DD00DF127
:101C90003603D81B002E00F0C1800130BEE063384F
:101CA000152892D801A252F820F000BF811D000033
:101CB000931D0000CB1B0000CB1B0000CB1B0000C2
:101CC000CB1B0000931D0000CB1B0000CB1B0000B2
:101CD000CB1B0000CB1B0000211E0000B91D000023
:101CE000DF1D0000CB1B0000CB1B0000051D00000A
:101CF000CB1B0000B91D0000CB1B0000CB1B00005C
:101D0000B91D0000BAF1000F0E9F35DB5146384671
:101D100015F05BFE07EB000A002F3FF456AF0026DC
:101D20009DF8423013F01002059200F093800230CB
:101D30005B06119A48BF129B0492104448BFC0181A
:101D4000B8F1000F40F3A0809DF84020A8EB0008F8
:101D5000C2F380035007069300F19680510640F1CC
:101D600089803EB159463046C84700287FDB069B34
:101D700001351E4630227EE0384615F01FFEC9E7C9
:101D80000E9B8DF82030002608AF0DF1210A0120AE
:101D9000C6E719075CBFC3F300135E01DDE90E233C
:101DA00048BF2B26002BBFF662AF524263EB4303C2
:101DB000CDE90E232D265AE7002658E700269DF888
:101DC00040200DF13603DB1B6FF386129A458DF828
:101DD00040207FF65AAFAAEB0303119355E70E9804
:101DE00090B30DF13603009310AA08AB002115F053
:101DF0001BFBBDF8423003F0EF0343F4F04343F024
:101E00001003BAF1000F0746ADF84230D6DA0028C9
:101E10003FF4DBAE0DF13603181A00269A467FE731
:101E20000E9B07293FF6D1AEDFE801F00C04060C4B
:101E300008080C0C1D70C8E61D80C6E6EA17C3E949
:101E40000052C2E61D60C0E62E4F064607F1050AA5
:101E5000052065E71A0748BF013069E70793104678
:101E600006925946C8470028DDE9062304DA15B072
:101E7000BDE8F08F202243461946002903F1FF33C5
:101E8000ECDC45446D1A98462EB159463046C84799
:101E90000028ECDB01359DF84230DA0601D41B073F
:101EA00005D559463020C8470028E0DB0135059BA1
:101EB00033B19DF843005946C8470028D7DB0135A8
:101EC000049E2E4405E059463020C8470028CEDB4A
:101ED0000135731B002BF6DC53463A4659464846FB
:101EE00015F0E8FA0028C2DB0544A844A8EB050376
:101EF000002B7FF76AAE59462020C8470028B6DB82
:101F00000135F3E76BCA010012F098BB2DE9F843E5
:101F100005464FF02003EFF3118683F31288BFF3D9
:101F20006F8F0E4B0E4F1C68DFF838804FF00C0996
:101F30002CB986F31188BFF36F8FBDE8F883D4E91D
:101F40000123002D18BF13462BB198F8102009FB70
:101F500002F2B85C98472468EAE700BFE811002065
:101F6000DC110020D025002070B5194B1C7CBFF37C
:101F70005B8F04F01F0301229A40164B610903EBAB
:101F80008103D04353E8001F01EA000543E80056EF
:101F9000002EF7D1BFF35B8F0A4213D00E4B0F4DCB
:101FA0008BB10C236343EA18E85C517815F049FDC6
:101FB0000020FFF7ABFF0C235C432A1900232B51B1
:101FC000C2E9013370BD83F31188BFF36F8FEFE770
:101FD000D0250020F0110020437A0100DC11002000
:101FE0002DE9F041354B07461D7C4FF02003EFF300
:101FF000118883F31288BFF36F8F0C24304B314E5E
:102000006C431A19195D00294CD007CA06EB040C61
:102010008CE8070000221A5588F31188BFF36F8FF0
:102020000C236B43F218F05C002839D07B1C10D0D5
:10203000D2F808C0244C254A4FF400400021ECFBA4
:10204000004100232046FEF74BF80121381A12F018
:102050009DFA14F075FB0120FFF758FFBFF35B8F6B
:102060001B4B6A0903EB820305F01F0101228A4022
:1020700053E8000F104343E800010029F8D1BFF3F3
:102080005B8F144B3BB10C2303FB05F03318305C22
:10209000597815F0CAFCFFF767FF14F065FB0120C3
:1020A000BDE8F0810146284600F016F80028B3D0BC
:1020B00007C8344484E80700AEE700BFD0250020FD
:1020C000D0110020DC1100203F420F0040420F00E1
:1020D000F01100202B7A01002DE9F04F85B00E465B
:1020E00003A900F043F81E4B039DD3F800A0DFF8CE
:1020F0007480431E1BB203EB4303044605EB8305C8
:102100004FF400474FF0000B24B9A146484605B0F4
:10211000BDE8F08F6868144AC4465946E0FB07C121
:1021200000236046FDF7DCFF0190A8680E4AC44614
:102130005946E0FB07C100236046FDF7D1FFBAF125
:10214000FF3FA94601D0824505D9731CDED0019B13
:102150001844B042DAD9013CA4B20C3DD4E700BF28
:10216000840100203F420F0040420F0008B9024B9B
:102170000B600020704700BF40B401001FB507246A
:102180000294044C0194BDF81840009417F0A3F990
:1021900004B010BD870800200449431E0F3013F817
:1021A000012F8A5C1A708342F9D1704796CA0100E8
:1021B000F0B5264E07460C460FCE8DB001AD0FC5CB
:1021C0000FCE0FC596E8070085E807003846002FB8
:1021D00038D0002C38D0381F2146024610344B78B6
:1021E0000D781B0443EA0563CD782B438D780431C9
:1021F00043EA05238C4242F8043FF0D1144C0421F9
:102200008A07036916D1C3F30742A55C1A0EA25CC4
:1022100042EA0562C3F30725DBB2655DE35C42EA8F
:10222000054242EA032221F0030330336B4453F8A2
:102230002C3C534050F8042F013153402C290361AA
:10224000DED101200DB0F0BD2046FBE774B30100E4
:1022500096CA0100014910220A60704710ED00E0A3
:1022600072B6404080F31188BFF36F8FBFF34F8F7A
:1022700030BF62B6BFF36F8F704700BF72B6494080
:1022800081F31188BFF34F8F20BF80F3118862B6AE
:10229000704700BF40B2002807DB044A4109012310
:1022A00000F01F00834042F82130704700E100E059
:1022B00040B200280CDB4309064900F01F00203320
:1022C0000122824041F82320BFF34F8FBFF36F8F6D
:1022D000704700BF00E100E0054B420900F01F001D
:1022E00053F82220012303FA00F01040704700BF8A
:1022F00000E100E040B20028A8BF00F1604001F119
:102300000101B8BF064B4FEA4111ACBF00F5614077
:1023100000F00F00C9B2B4BF195480F80013704721
:1023200014ED00E008B572B6044B5A691AB10022E8
:102330005A6118F03BF962B608BD00BFD0250020F5
:1023400030BFFFF7FDBF00BF0F4A08B50F4B22F0AB
:102350007F029A60BFF34F8FBFF36F8FD3F888204F
:1023600022F47002C3F88820EFF3148323F00403EF
:1023700083F31488BFF36F8F13F0A6FA14F030FBC9
:1023800000F020FA13F0E4FA0000000000ED00E095
:10239000094A0A4993680968D967094998674B68E7
:1023A00043F080534B60002383F31188BFF36F8F9A
:1023B0009368D86F704700BFD02500205CC901002A
:1023C00000ED00E012498A684FF030001044EFF34E
:1023D000098C80E8F01F202080F31288BFF36F8FF4
:1023E0000C4F4FF000668A698A603E60906F002350
:1023F000936780F3118804B5104600F029FABDE810
:10240000044002F1300090E8F01F8CF30988704717
:10241000D025002004ED00E01EF0040F0CBFEFF308
:102420000880EFF30980816911F8021C0229FFD0AE
:1024300001B515F0AAFA01BD42F8203C009B42F814
:102440001C3C0A49019B42F8183C029B42F8143C90
:1024500021F001014FF0807342F8043C42F8081C5F
:102460000023203A02658367704700BF716E010048
:10247000094A0346906870B113F1160F806E05D0BB
:10248000A0F140029A4205D8834203D2814228BF7C
:102490000020704700207047D025002008B5094B68
:1024A0000D461446986000F0D3F9204685F309885C
:1024B000002163B681F31188BFF36F8F00220023E0
:1024C00014F0D6FCD025002001B572B60B4A506935
:1024D00000281EBF0021516118F068F862B6EFF3C2
:1024E0000580A0F110004FEAC0000549014409C968
:1024F0009847BDE80140034908470000D025002067
:1025000054B0010009250000044B9968986988427D
:1025100003D003494FF080520A607047D025002055
:1025200004ED00E070B5264B15469A6A12F0100FC4
:102530009A6A14BF1124102412F0080F9A6A18BF67
:102540001224920706460AD5586B9A6A140634D5A7
:1025500019B19A6A22F080029A62132401E06FF0A6
:102560001500174B9A6A12F0010F9A6A18BF1424CB
:1025700012F0200F9A6A18BF1524D20602D49B6A63
:102580009B070AD50E4B5B68190506D53146FFF748
:102590006FFF10B180F309880224094B9A6A9206F2
:1025A00042BF5A6A22F400525A629A6A42F0FF020B
:1025B0009A6200232B70204670BD6FF01500CCE7A7
:1025C00000ED00E0134B9A6A12F0007F9A6A14BF84
:1025D0001E201D2012F0807F9A6A18BF1F2012F45F
:1025E000002F9A6A18BF212012F4802F9A6A18BF10
:1025F000222012F4003F9A6A18BF232012F4803F71
:102600009A6A6FEA02426FEA12429A6218BF242065
:10261000704700BF00ED00E010B5194B0246986A04
:102620009C6A10F4805F14BF1720162014F4006F0A
:102630009C6A18BF1820A40509D5986B986A0004F5
:1026400004D51AB19A6A22F400429A6219200C4BFE
:102650009A6A12F4806F9A6A18BF1A20D2050CD4B5
:102660009B6A13F4005F18BF1C20054A936A43F469
:102670007F43936200230B7010BD1B20F5E700BF62
:1026800000ED00E070B5454B5B688AB00546C3F3CA
:102690000803002686F31188BFF36F8F02F07F4096
:1026A000B0F17F4F11D102F00C0008280DD01007B7
:1026B0004CBF0D4601260022033B8DF80720032B5B
:1026C00005D8DFE803F01E5D615A3546F3E70024C4
:1026D0009DF807309BB92022294602A815F08EF9F3
:1026E000099B002E54D0C3F3080222B96FEA53238A
:1026F0006FEA4323099302A9204615F044F90AB072
:1027000070BD264BDA6A9107E1D4DA6A002ADEDB73
:10271000DA6A5200DBD55A69A96942F480725A61BB
:10272000BFF34F8FBFF36F8F5A6931F8021C22F449
:1027300080725A61BFF34F8FBFF36F8F4DF60272F5
:1027400091420AD09A6AD2B24AB10DF10702012130
:102750002846FFF7E7FE0446BAE72C68B8E79A6A0E
:1027600012F47F4F05D00DF107010120FFF754FF50
:10277000F1E79B6AB3F5803FA9D3FFF723FFEAE7B0
:102780000DF107020021E3E70DF107010020EDE75D
:1027900023F4FF7323F00103ACE700BF00ED00E07A
:1027A000024A536943F010035361704700ED00E0A3
:1027B000EFF30880EFF3098101B57246FFF762FF7E
:1027C00001BD00BF044800232021C2180133272B7C
:1027D00082F80013F9D1704700E100E0FFF794FBA5
:1027E000202080F3118808484FF40461401880F3DA
:1027F0000988EFF314800221084380F31488BFF3A3
:102800006F8FFFF7A1FD0000803E0020084B9B6802
:1028100083420BD1EFF3058343B1064B5A6842F074
:1028200080525A605A6A22F400425A6214F066B822
:10283000D025002000ED00E0024B034A03480121AF
:1028400000F070B80000012000000020CCB40100AE
:10285000826E054B403A1A60044A4021C3E90112D6
:102860001846012100F068B8F411002000000B1593
:10287000F0B5204E00258D4239DA446874B353B167
:1028800004F1FF3C14EA0C0F2FD11F2C2DD907683F
:102890001CEA070F29D1202C0768D0F808C05FFA7E
:1028A00082FE1ED9B4F1004F1DD8013CB4FA84F465
:1028B000C4F11F046400BEF1070F4CEA040C14D8E5
:1028C00027F01F04144344F01004C6F89820C6F8FB
:1028D0009C404CF00104C6F8A040013201350C3098
:1028E000C9E70824E7E73E24E5E76FF01502104644
:1028F000F0BD00BF00ED00E0044B0522C3F89420BA
:10290000BFF34F8FBFF36F8F704700BF00ED00E044
:10291000BFF35F8F024B0022C3F89420704700BFC3
:1029200000ED00E010B5034C01232278FFF7A0FF73
:10293000207010BD2F26002008B5094A0023127808
:10294000FFF796FF10F1160F02D0064A072800DDA8
:1029500008BDC2F89800C2F8A0300130F6E700BF09
:102960002F26002000ED00E014490868082810B563
:1029700021D8FFF7CDFF124C49680022904201F1A7
:102980000C0105D10F4B1870FFF7B6FF002010BDEA
:10299000C4F8982051F80C3C23F01F03134343F074
:1029A0001003C4F89C3051F8043C43F00103C4F810
:1029B000A0300132E2E74FF0FF30E8E7D8B4010081
:1029C00000ED00E02F260020014B1860704700BF8B
:1029D000A00100204FF02002EFF3118382F3128850
:1029E000BFF36F8F044A0121C2F8401583F31188A9
:1029F000BFF36F8F0020704700E0014020B1034B10
:102A0000800143F001031847704700BFC0B30100C5
:102A100008B5044817F0D8FC00280CBF6FF012006E
:102A2000002008BD94AF010030B50A4D0A4B85B0B7
:102A3000002428460293039417F046FF02AB00934C
:102A4000284606490A234FF4A36213F0A5FB20464B
:102A500005B030BDB00A0020C7CB0100C02E002059
:102A60000146014813F0D0BBB00A002030B4034641
:102A700008461A78012A13D0022A26D072B9154ABC
:102A800002F1100452F8045B41F8045BA242F9D150
:102A900012780A705B8843731B0A837330BC7047DB
:102AA0000C4A02F1100452F8045B41F8045BA242A4
:102AB000F9D112780A705B684373C3F307221B0CC9
:102AC000C3731B0A82730374E8E730BC11221946F2
:102AD00014F094BFD0CB010038B50546054816F078
:102AE000B9FE044620B100210C3016F0EEFE25762A
:102AF000204638BDD809002010B50B460A490246C9
:102B0000D1F8300120B9BDE810400120FFF7E4BF43
:102B100016F0A9FE012300210376018204460C3041
:102B200016F0D3FE204610BD0000002070B504460C
:102B30000F2C0D461046194605D80D2C0DD9BDE8B1
:102B40007040FFF7D9BF132C07D10C4816F082FE56
:102B5000044638B90024204670BD02460B4645B1F4
:102B60000748F3E700210C3016F0AFFE012323766F
:102B7000F1E7BDE870400120FFF7AEBF040A002076
:102B80005409002038B5C368B3F801401B7863B915
:102B9000204601F02DFD054640B9084B1A8822B9A0
:102BA0006FEA04506FEA1050188038BD012101F01F
:102BB00027FD2846BDE8384015F05FBC0C260020F4
:102BC00010B5084C0146052294F8670001F0AEFEEE
:102BD00038B994F867000449BDE81040042201F0B8
:102BE000A5BE10BD00000020ADCB010010B5012135
:102BF00004460C3016F094FE2146034A0078BDE8E6
:102C00001040072314F0F4BF70B50100F8B5074673
:102C1000907A0E46144610F0ADFA284B83424BD101
:102C2000204610F0AFFA264D0C2303FB00504388DA
:102C3000BB4241D1234FD7F8300120B110F05CFBEB
:102C40000023C7F83031204610F09CFA0C2707FB10
:102C5000005043689BB196B9204610F093FA07FBE9
:102C6000005001214268D2E90003127A03F01F07E5
:102C7000B9405B09D2B100EB830014F08CFF204611
:102C800010F080FA0C2707FB00508368A3B12046A0
:102C900010F078FA78432E54204610F073FA07FBB0
:102CA0000055A868BDE8F84013F0D2B8C94300EB5E
:102CB000830014F0B4FFE2E7F8BD00BFAC090020C8
:102CC000001200200000002038B5042104460C301A
:102CD00016F026FE4578017840882246FFF796FFD9
:102CE00025B10348BDE8384013F0B2B838BD00BF85
:102CF0001801002038B5032104460C3016F010FEF0
:102D0000E36805781978B0F801002246FFF77EFFE6
:102D100025B10348BDE8384013F09AB838BD00BF6C
:102D20001801002010B5C1E900239DF808300B728E
:102D30000C4610F027FA034B0C2202FB00335C60B8
:102D400010BD00BF001200202DE9F0474FF0FF3208
:102D50004FF0FF3306461748174D0F4616F07AFD21
:102D6000044600F10C0A00214FF00008504616F00E
:102D7000ACFD84F81880204610F004FA4FF00C09DE
:102D800009FB00504680204610F0FCF909FB00507A
:102D9000C0F80880204610F0F5F909FB0055032122
:102DA0005046C5F8048016F094FD068087702046D2
:102DB000BDE8F087AC090020001200202DE9F041A9
:102DC000074686B015460C4621B9FFF7BDFF0446FD
:102DD00000284BD001220021684617F0B4FC2046A1
:102DE00010F0D0F9DFF88C800C2303FB0080C0F8D2
:102DF00008D0204616F037FD01461F4816F031FD79
:102E00004FF4A0220023684613F048F8064688B124
:102E10004FF4A573194A1A491A4814F062FB1A486C
:102E20003246394614F05DFB404080F311884FF084
:102E3000030002DF204610F0A5F90C23584318F8D0
:102E400000605EB1204610F057FA092E14BF6FF0F3
:102E500004006FF06E0006B0BDE8F08115B12C6083
:102E60000020F8E7204610F047FAF9E76FF0680015
:102E7000F1E700BF0012002034010020E9CB01007F
:102E80001DCC010026CC010043CC0100F7B5144B4A
:102E900093F99330002B05460C461DDA14B92046F1
:102EA00003B0F0BD082C01AA4FF0000142F2180057
:102EB000264628BF0826FFF781FF0028F0D1019F92
:102EC000F96832460131284614F098FD384610F072
:102ED00013FA3544A41BE1E76FF08500E0E700BF7B
:102EE000000000202DE9F043B0F801707C4A6FEA41
:102EF000075311886FEA13539BB299424FF00006B3
:102F000008BF1680047889B005461FFA87F808BF05
:102F10000126BCB13C2C30D100F066FF6FF080017F
:102F2000103014F07CFE0020FFF74AFE054620B367
:102F30004472002101F064FB284609B0BDE8F0436B
:102F400015F09BBA00F10409484614F0E1FDB8B150
:102F5000494606A814F0D2FD062205F111010DF133
:102F6000110014F04BFD01238DF81030EB78012B8C
:102F70001BD01F21404614F03DFF09B0BDE8F0838F
:102F8000EB78012B04BF574B93F867404946204626
:102F900015F068F80722014606A814F02FFD072255
:102FA000494604A814F02AFDE0E706A8FFF708FE4A
:102FB000EB78012B04460AD100F016FF6FF0800178
:102FC0008146103014F02BFE484615F0B9F9002C5C
:102FD000CFD02046072220F8887B06A914F00EFDEA
:102FE000B5F81730A4F89E30B5F81930A4F8A4301D
:102FF000B5F81B30A4F8A630EB78E3700022012B63
:10300000627217D1072204A904F18F0014F0F6FCB4
:1030100000F0EAFE217A334DC1EBC10129440722B9
:1030200004F1960014F0EAFCD5F8DC305D0601D519
:1030300001F078F80721204601F0E2FA1EB10121E3
:10304000204601F0DDFA204615F055FAA37A072B49
:1030500042D1BFF35B8F6368224EBFF35B8F13F4E3
:10306000805F18D1E3781BB196F8D030180712D5DD
:10307000022142F21600FFF767FE054658B1022111
:103080000C3016F026FC238803800022294642F2E9
:103090001600FFF793FE96F8D130D90706D5002128
:1030A000022300911A46204614F0DDFE96F8D03037
:1030B0009A0611D5D6F84C319B689B070CD50DF1BB
:1030C0000E0103A814F07EFE30B9BDF80E20BDF845
:1030D0000C10204614F0A9FE204615F0CEF94CE75E
:1030E0000C2600200000002010B5C168184C0B7899
:1030F00088B007228DF80030B1F80130ADF801300A
:10310000CB788DF80330B1F80B30ADF81730B1F84B
:103110000D30ADF81930B1F80F30ADF81B304B7CE5
:103120008DF81D30043101A814F068FC21460622F8
:103130000DF10B0014F062FC062221460DF1110086
:1031400014F05CFC6846FFF7CDFE08B010BD00BF70
:10315000C1CB0100024BD3F84C315B69184700BF6B
:103160000000002038B505460C4619B9FFF7ECFD04
:10317000044698B140F635439D4209D12046FFF7F9
:10318000E9FF054640B1204610F0B6F8284638BDA4
:103190000448214616F065FB0025F7E76FF0680547
:1031A000F4E700BF340100202DE9F0473C4FDFF881
:1031B000F48007F11409FB6848466FF39433FB6011
:1031C00001F0C4F9451C36484FF0FF324FF0FF3391
:1031D000294613F05FFD60B13349344840F6F413DB
:1031E000424614F07EF9404080F311884FF003000E
:1031F00002DF2B4E15B913F0DFFADCE7F368C3F3F7
:103200008633042B42D1337B002B42D12848002245
:10321000002316F024FB044660B92649234840F6F3
:103220008613424614F05DF9404080F311884FF058
:10323000030002DFDFF880A020484FF0FF324FF09C
:10324000FF3312F02BFEDAF8300120B110F054F801
:103250000023CAF83031204616F005FBCAF83001C9
:103260002046FFF777FF88B1144812F0F1FD2046A1
:103270000FF088FF124B0C2202FB00301F21408808
:103280002246FFF7C3FC204610F036F81436013D05
:10329000B0E7012BFAD13069383801F021FCF5E7AD
:1032A000A4010020E9CB01001DCC010026CC0100C7
:1032B00034010020A8CD01000000002018010020EA
:1032C000001200202DE9F041044600F10C063046C2
:1032D00016F036FBB4F81080B8F1010F05460CD893
:1032E0001C4A1D491D4840F6955314F0FAF8404019
:1032F00080F311884FF0030002DF3046022116F000
:103300000FFB0746007814F007FCC20706460CD4F2
:10331000104A1349114840F6995314F0E2F840401E
:1033200080F311884FF0030002DF05230D4A38783F
:10333000214614F05DFCB30707D56369A4F810803B
:1033400013FA85F5E560BDE8F0812046BDE8F0415F
:103350000FF0D2BFE9CB01006FCC010026CC0100F9
:1033600088CC010028B5010070B5037E012B04460E
:1033700036D0032B63D1038A032B0CD8324A33494E
:1033800033484FF4FB7314F0ACF8404080F31188DD
:103390004FF0030002DF042104F10C0016F0C0FA24
:1033A000FF22438806886276228AC6F30B009A427F
:1033B000608303D020460FF09FFF0FE001F018F963
:1033C00005460028F6D001F0D9F9320B6076214687
:1033D000284614F0E9FF284615F04FF8002070BD8C
:1033E000038A012B0CD8184A1849194840F6731360
:1033F00014F077F8404080F311884FF0030002DFAB
:10340000022104F10C0016F08BFA0546007814F046
:1034100083FB83070CD40C4A0E490D4840F6771302
:1034200014F05FF8404080F311884FF0030002DF92
:10343000094A28780423214614F0DAFBBAE70FF092
:103440005BFF6FF01500CAE7E9CB01006FCC01000C
:1034500026CC0100A1CC010050B5010010B5037EBF
:10346000012B04460CD0094A09490A4840F6EB539F
:1034700014F037F8404080F311884FF0030002DF6A
:103480002046FFF71FFF002010BD00BFE9CB010061
:10349000CFCC010026CC0100084A0346D2F84C01EB
:1034A00030B9D96839B1596929B1C2F84C3170477E
:1034B0006FF0770070476FF0150070470000002034
:1034C0000148042114F067BBCC000020F7B5B04DD3
:1034D000D5F84C31996811F0010121D101AA40F6CB
:1034E0000340FFF76BFC0446002861D10198C368D4
:1034F0001B789BB9BFF35B8FD5F8CC30BFF35B8FE4
:1035000005F1CC0203F00903BFF35B8F52E8001F03
:1035100042E80034002CF9D1BFF35B8F0FF0ECFED2
:1035200001AA002141F20300FFF748FC04460028ED
:103530003ED1019E9748F1680822013114F05EFAED
:1035400030460FF0D9FE214601AA41F20100FFF7F3
:1035500035FC044660BB0198C3685A7885F868203A
:103560005A88A5F86A201A7985F86920B3F80720E7
:10357000A5F86C20B3F80530A5F86E300FF0BCFE4E
:10358000214601AA41F20200FFF718FC044678B96F
:10359000019E8148F1684022013114F02FFA304633
:1035A0000FF0AAFE95F874305E0604D46FF0120492
:1035B000204603B0F0BD214601AA42F20300FFF706
:1035C000FDFB04460028F3D1019E7448F1680822EF
:1035D000013114F013FA30460FF08EFE214601AA95
:1035E00042F20200FFF7EAFB04460028E0D1019C0A
:1035F000E368B3F8012091B241B1D97831B1A5F8AF
:10360000FC20DA786648114617F09DF820460FF046
:1036100073FE95F8746016F0200618D1022140F66A
:103620006D40FFF791FB0446002800F0A9800221BD
:103630000C3016F04EF901230370467021463246D5
:1036400040F66D40FFF7BAFB04460028B0D195F86C
:1036500094301C0712D501AA002142F21C00FFF78A
:10366000ADFB04460028A3D10198C368D3F801201C
:10367000D3F80530C5E936230FF03EFE95F8D0307B
:10368000980623D50DF10201684614F09BFB044611
:1036900000288DD1042142F22400FFF755FB064695
:1036A00000286DD004210C3016F013F9BDF800305D
:1036B0000380BDF8023043802246314642F22400A6
:1036C000FFF77CFB044600287FF472AF082142F22A
:1036D0000100FFF739FB0446002851D008210C30C7
:1036E00016F0F7F895F8D02012F0020F14BF2F2330
:1036F0000F23910695F8D12048BF43F0400312F004
:10370000090F18BF43F4006300220370C3F30723BB
:1037100043708270C270027142718271C27121461F
:1037200042F20100FFF74AFB044600287FF440AF55
:1037300095F87430B5F8FC109A0624D4C9B901AADA
:1037400041F20500FFF73AFB044600287FF430AF52
:10375000B5F8FC30019C4BB9E368B3F80120A5F83B
:10376000FC209A880E48114616F0EDFF20460FF017
:10377000C3FD082140F60140FFF7E6FA044688B988
:103780006FF0680414E70029F3D16FF004040FE729
:10379000000000207000002078000020D0000020F1
:1037A0000001002008210C3016F093F8102303705C
:1037B000882300224370022620238270C670027183
:1037C00042718271C371214640F60140FFF7F6FA5B
:1037D000044600287FF4ECAE014601AA4FF60140F2
:1037E000FFF7ECFA044648BB01980FF085FD21462F
:1037F00001AA4FF60240FFF7E1FA0446F0B9019F33
:103800001648F9683246013114F0F8F838460FF0DE
:1038100073FD95F8B9305B0710D501AA21464FF624
:103820000340FFF7CBFA48B9019C0D48E16801223B
:10383000114414F0E3F820460FF05EFD00F03EFA6C
:10384000044600287FF4B4AE01F0D8F904460028FD
:103850007FF4AEAEFFF734FEAAE600BFB900002049
:10386000B800002010B5FFF731FE034B1B6813B101
:10387000BDE81040184710BD1812002070B5264D45
:10388000D5F84C3188B00646002B3FD06FF00201CE
:1038900005F1CC0014F0C3F9012114F07CF910EA11
:1038A000010436D11D4B1E600A4605F58C7016F0DA
:1038B0004AFF05F59A7016F001FF00220023CDE9BA
:1038C00006236FF00803CDE90243CDE90044144B11
:1038D000144904944FF44072134812F02BF9134921
:1038E000114816F05EFED5F84C31DB689847044667
:1038F00048B926B908B0BDE87040FFF7E7BD05F14B
:10390000BC0012F043FC204608B070BD6FF01204FA
:10391000F9E76FF07704F6E70000002018120020A6
:10392000A931000040340020500B0020F2CC0100EF
:10393000044BBFF35B8F1868BFF35B8FC0F380004D
:10394000704700BFCC00002000487047F8CC010051
:10395000F8B50A4F06460025FB79ECB2A34202D81F
:103960006FF0010009E0C4EBC4013944304614F0A3
:1039700071FB01350028EFD02046F8BD0000002083
:1039800038B513490622054614F028F8D8B10621A7
:1039900042F20500FFF7D8F90446B0B106222946E5
:1039A0000C3015F09CFF0022214642F20500FFF783
:1039B00005FA48B906220648294614F01FF8054BB7
:1039C000012283F86020002038BD6FF06800FBE71B
:1039D000610000200000002037B504460D4679B193
:1039E0001449284614F036FB50B91348C4EBC404FC
:1039F00007222946204414F001F8002003B030BD0E
:103A0000684614F06DF80028F8D16846FFF7A0FF6B
:103A10000028F5DA084BC4EBC4041C4407226946AD
:103A2000204613F0EBFF002DE7D007222146284661
:103A3000E1E700BFB4CB01000000002070B50D46E7
:103A4000044618B9BDB16FF0150070BD1C4914F0E3
:103A500001FB0028F6D12378012BF4D1A37903F0E0
:103A6000C003C02BEFD12046FFF772FF0028E9DB2F
:103A70006FF07700E9E7134DEB79012B1CD0BFF312
:103A80005B8FD5F8CC30BFF35B8FDB070BD5EE79BE
:103A900021463046FFF7A0FF0028D6D1EB7901334D
:103AA0003046EB71D1E7002CCDD00549204614F00B
:103AB000D1FA0028EBD0C6E76FF00B00C5E700BFD6
:103AC000B4CB01000000002073B5044698B101AAF0
:103AD000002141F20900FFF771F9064658B9019B30
:103AE0000F49DD6801350622284613F077FF28B913
:103AF00001980FF001FC002002B070BD09490622B8
:103B0000284613F06BFF0028F2D006222946601CDD
:103B100013F074FF019826700FF0EEFB0120EBE725
:103B2000C1CB0100BBCB010007B56846FFF7CCFF56
:103B3000044BD87118B169460020FFF74DFF03B060
:103B40005DF804FB000000202DE9F341164B93F8CB
:103B5000BA30DB070746884604D40026304602B058
:103B6000BDE8F08101AA00214FF60940FFF726F9D0
:103B700004460028F1D1019BDD686E78464528BFD8
:103B8000464602354FF01608A64203DC01980FF0B6
:103B9000B3FBE3E7294608FB0470162213F02EFF5F
:103BA00001341635F0E700BF00000020F0B5154ED7
:103BB000F47989B02CB9012102A8FFF7C5FFF07193
:103BC000C8B90021084609B0BDE8F040FFF736BF8C
:103BD00002AB07FB053106220DF1010013F00EFFC9
:103BE0000123694628468DF80030FFF7F5FE0134C1
:103BF00010B109B0F0BD1627F379E5B2AB42E7D8B2
:103C00000020F6E7000000202DE9F04190460E4626
:103C10001D46024600284BD0002B49D0CF07047820
:103C200031D5254FB8F1000F13D088060AD4C4EB64
:103C3000C403FB5C012B15D02B70B2060FD543F0EB
:103C400002030BE097F8D0305906F0D46FF08500EE
:103C500006E0C4EBC403FB5C012B03D02B700020F7
:103C6000BDE8F081072101FB04710131104614F019
:103C7000FEF90028F4D1C4EBC4043B5D2B70B8F10D
:103C8000000FECD0D9E74B070ED50B4EC4EBC407A1
:103C9000F35D012BE2D1072111FB0431314414F013
:103CA000E6F9F35D2B70DBE714F0E9F90123F9E79E
:103CB0006FF01500D4E700BF0000002010B50A4CDB
:103CC000E3790BB1002010BDFFF72EFF0028FAD1D9
:103CD000E379002BF6D1FFF769FF0028F3D1601CD0
:103CE000BDE81040FFF74CBE0000002038B5436827
:103CF0000446580501D5002038BD22690AB1D9070C
:103D0000F9D5194D2078EB798342F4D9C0EBC00086
:103D100016490722284413F061FE0028EBD06068A2
:103D2000C20706D495F86830082B02D8A3689F2BE9
:103D3000E1D910F0300F02D02369002BDBD0C3068D
:103D400001D4236943B9D4E902239A42D3D81F2A64
:103D5000D1D9B3F5804FCED800F46030B0F56030E3
:103D600018BF0120C8E700BF00000020B4CB01004D
:103D700008B504490722093013F030FE003818BF97
:103D8000012008BDB4CB010070B5154B027883F853
:103D9000672004460D46FFF7EBFF034620786BB91A
:103DA000104900F08FFD044610B96FF00B0070BD94
:103DB000042100F025FC2C600020F8E704F109063E
:103DC000314614F0C1FB40B92078314600F07AFD4D
:103DD00004460028E9D00521EBE76FF01500E6E77F
:103DE00000000020ADCB0100004870471800002003
:103DF0002DE9F04FD1F810908DB09A460023B9EB21
:103E0000030605468D48059218BF0126079314F056
:103E100060F942070C4640F106810846FFF766FF4D
:103E200028B96FF0150B58460DB0BDE8F08F20464D
:103E300014F03CF980460028F3D005F1100738460D
:103E400014F047F90306C0F3C01B00F1EF800F2206
:103E5000594608A813F0DDFDA368ADF8203060686E
:103E6000E368ADF8223014F025F92A7823788DF82C
:103E70002D009A428DF82EB004D070486FF4005196
:103E800014F02DF96E4A23782B7082F86730616840
:103E90000DF1250332462846FFF7B6FE834600287B
:103EA000C1D105F109000722B9F1000F13D0216932
:103EB00013F0A4FD204614F00EFA62680646D007FF
:103EC00016D4920503D4169B0BB9022E4DD10223B2
:103ED0008DF824301AE05B4913F090FD204614F071
:103EE000FAF96268D1070646EBD58DF824900DE00B
:103EF00012F0100F0CBF012204228DF8242021693A
:103F000007220DF1260013F079FDD8460F2142F269
:103F10000600FEF719FF8346002800F08A800F2272
:103F200008A90C3015F0DBFC0022594642F20600CD
:103F3000FEF744FF00287FD1B9F1000F1BD0636862
:103F4000DB0726D42846012114F0D5F9079D8346C6
:103F5000002860D0002D3FF466AF2846002100F015
:103F60004FFB284614F089FA5DE70323DDF85880FB
:103F70008DF82430CAE7179B0093CDE90186169B84
:103F800005995246284614F02FF983460028D6D0CA
:103F900049E707A92846FFF7F7FE83460028D1D056
:103FA00010F10C0F7FF43FAFB9F1000F7FF43BAF7E
:103FB000626890073FF537AF636883F00203C3F38D
:103FC000400B0BF001020E21384614F0F6F8731E78
:103FD0005A425A410821384614F0EFF8B11E4A42BD
:103FE0004A413846092114F0E8F862680A2102F0D3
:103FF0000102384614F0E1F842460B21384614F02D
:10400000DCF862680D21C2F38002384614F0D5F85E
:104010004FF0000B07E715B1284614F02EFAB9F15E
:10402000000FCED1C8E76FF00A0BFCE66FF0770BFC
:10403000F9E66FF0680BF6E68346F4E6CC00002064
:1040400000000020B4CB010073B51546069A0C465B
:10405000CDE900322B460A4601461148FFF7C8FE5B
:1040600021460646002340F201109D4202D130460F
:1040700002B070BD0A88824204D14A6812B1127837
:10408000D20702D401330831EFE70649064816F09B
:1040900021FC4FF470220023034812F013F9E6E7E5
:1040A00018000020478301003000002010B5194897
:1040B00014F046F918486FF4804114F010F81648CF
:1040C00014F007F803461A06C0F3C01021D51248B1
:1040D00013F0FFFF430512D50E48FFF749FE0F4BC3
:1040E00098B90F490422187E00F020FC044630B134
:1040F0000021417200F084FA204614F0BEF9BDE8B8
:1041000010400448002114F0F6B8052203F1210103
:10411000E9E710BD18000020280000200000002062
:10412000ADCB010073B53248314C13F0D2FF10F41F
:10413000804F5AD0204613F0CCFF030655D42046BA
:1041400013F0C7FF460550D501A9A4F11000FFF7F1
:104150001BFE002849D1A4F11000FFF709FE02461A
:10416000204613F0B6FFC0F38031204613F0B1FFB4
:1041700081F0010145054FEA41011D4848BF41F06A
:10418000010113F0A6FF800448BF41F00401194863
:104190000DF10303FFF738FD054630BB154801213B
:1041A00014F0A9F8019E28B9304602B0BDE870406D
:1041B00014F063B92946304600F022FA6FF48041CA
:1041C0000B4813F08CFF0546304614F056F96B048B
:1041D0000BD5BFF35B8F54E8003F43F4804344E8C2
:1041E0000032002AF7D1BFF35B8F02B070BD00BF71
:1041F000280000201800002070B50B4B1D680446F5
:1042000025B90A4D0A4EB54207D370BD2B6813B1CC
:10421000617A204698472D69F2E72B6813B1617ADD
:10422000204698471435EEE74C12002028B20100D2
:104230003CB201002DE9F041154F04464FF0000853
:104240004FF02002EFF3118382F31288BFF36F8FD8
:10425000216A29B983F31188BFF36F8FBDE8F0811C
:10426000606A0A682262814208BF626283F3118831
:10427000BFF36F8FD1E90156C1F80C80C1E9018805
:10428000384616F047FA002231462046A847D7E7BD
:104290001009002070B5D1E901560022C1E90122C0
:1042A0000446CA60054816F035FA314620462B46CA
:1042B0006FF06D02BDE87040184700BF1009002084
:1042C0002DE9F84FDFF878811F46B8F8FC30002B55
:1042D00004460D4608F58070164608BF00200022EF
:1042E000002311F0DBFD002840F0A780002E7AD0DB
:1042F00006F10C0A5046B8F8FCB015F025FB5845FD
:104300006BD9B8F8FCB055F80C1F5A46504615F05A
:10431000E6FA5946284615F0FBFAA37AB569072B49
:1043200040F088804FF02003EFF3118283F312886E
:10433000BFF36F8F002D61D000232B60A369002B8A
:1043400059D1C4E9055582F31188BFF36F8F042159
:1043500006F10C0015F0D4FA238807F0FD0743EAB4
:1043600007370780338A043B438002233376304685
:10437000FEF7F0FE074668B34FF02003EFF311811C
:1043800083F31288BFF36F8F002D4DD06369002235
:104390005BB19D4245D12B68002A3CD1A269636183
:1043A000954200D1A36100232B6081F31188BFF3F4
:1043B0006F8F6FF00407B8F8FC302248002B08BF5D
:1043C000002011F045FD2DB10023B36129462046A0
:1043D000FFF760FF3846BDE8F88F504615F0B4FA95
:1043E0001FFA80FB8FE70022002304F1380015F04C
:1043F00036FA064691E71D60A561A4E7A36933B1CB
:1044000003F10C09DB680133C9F800309BE7E3696D
:1044100004F11C09F7E71360A3699D4208BFA2617C
:10442000C1E71A461B68B3E7D9F80030013BC9F869
:104430000030BAE76FF07F07BDE76FF06807C9E7A4
:1044400000000020000100200448B0F8FC30002BE0
:1044500000F5807008BF0020704700BF00000020FA
:1044600038B5002204468A4202D10024204638BDD5
:1044700004F1BC030120BFF35B8F53E8005F002D04
:1044800004D143E8000CBCF1000FF6D1BFF35B8F01
:1044900002D0C0340244E6E7002CE6D0BC22002162
:1044A000204613F0B6FA04F15800044916F012FA47
:1044B000034904F1280016F0C9F9D7E7DD490000E7
:1044C0004B830100F8B51F46CB7A072B06460D46F5
:1044D000144630D9837A072B1BD152B312F008FA55
:1044E000184B8342184807BF002200234FF0FF32C9
:1044F0004FF0FF3311F078FC0146F8B1B37A072B87
:104500004FF0000208D0C0E90122C2600E4816F048
:1045100001F96FF07F00F8BDC0E90147C2600024D7
:10452000A96106F138002C77294615F09AF9204642
:10453000F1E71146F3E76FF01500ECE76FF0680064
:10454000E9E700BF101100201009002070B50446F3
:10455000234816F0A6FC224B00222046012116F02B
:1045600083FCBFF35B8F1F4B1A68BFF35B8F04F1B3
:1045700014000AB9012070BDA3F1BC0113F8B23CCC
:1045800093B9BFF35B8F0B1D53E8002F22F040055A
:1045900043E80056002EF7D1BFF35B8F530603D5D7
:1045A000084613F0DEFEE5E78B7A072BE2D10E4BCF
:1045B000B3F8FC20002ADDD0D3F80821896B51B173
:1045C0004AB903F58073022116F04EFC012384F8EA
:1045D00020300220CFE7054B00220421F4E700BF82
:1045E000E00100208C0C002000000020080C0020BE
:1045F00002460121014813F05CBF00BFD00B002030
:104600002DE9F041857A8D42044600F09480817254
:1046100025B98378082B01D013F013FFA37A012B5F
:104620001DD1544D002705F580764FF02002EFF3A1
:10463000118382F31288BFF36F8FE269002A74D06E
:10464000013AE26183F31188BFF36F8FB5F8FC3054
:10465000002B14BF3046002011F0FAFBE5E7072BD2
:1046600009D0002B67D1A378042B21D12046BDE8C7
:10467000F04113F002BFA378042B5CD004F13800A2
:1046800016F01CF83C48002112F060FB0023C4E93E
:104690001433E378012B4ED1032384F8AC3004F1BA
:1046A00058004FF42032BDE8F041002311F0D6BD90
:1046B000013D052D3FD801A353F825F0D546000054
:1046C0001D4700006D4600006D4600001D470000BC
:1046D0001D4700002046FFF7ADFDA378012B0AD14E
:1046E00004F15805284616F001F910F00C0F02D01D
:1046F000284616F0FDF8BFF35B8F043454E8003F02
:1047000043F0400344E80032002AF7D1BFF35B8F47
:104710001948BDE8F041002112F018BB637A002B64
:10472000A4D02046FFF768FDA0E7616929B983F3AB
:104730001188BFF36F8FBDE8F081A0690A686261DC
:10474000814208BFA26183F31188BFF36F8F4FF0DE
:104750002002EFF3118382F31288BFF36F8FCA68D0
:10476000E261CF6083F31188BFF36F8F2046FFF7BC
:1047700091FD6BE700000020E0010020034BC01A10
:10478000034B80115843C0B2704700BFD00B0020CC
:10479000ABAAAAAA38B50D460649002808BF0846A4
:1047A00015F058F8044618B1291D0C3015F08DF895
:1047B000204638BD28090020F8B5BFF35B8F42685A
:1047C000BFF35B8F9205044600F1040319D5B0F8DE
:1047D0009E20B0F8A010914213D8B0F8A2109142D8
:1047E0000FD3D0E9291291420BD1BFF35B8F53E86D
:1047F000001F21F4007143E80012002AF7D1BFF333
:104800005B8F104B1D6825B90F4D104FBD420CD367
:10481000F8BDEE683EB1B4F8A630B4F8A420B4F800
:104820009E102046B0472D69EDE7EE683EB1B4F822
:10483000A630B4F8A420B4F89E102046B047143532
:10484000E4E700BF4C12002028B201003CB2010096
:104850002DE9F041074608460C4613F02FFB0546AC
:1048600018B900252846BDE8F081134B1E6846B9EB
:10487000124EDFF84C804645F4D2B36883B9143643
:10488000F9E7B3680BB93669F1E72146384698472E
:104890000028E6D0204613F011FB0028F3D1E0E712
:1048A0002146384698470028DBD0204613F006FB07
:1048B0000028E4D1D5E700BF4C12002028B2010047
:1048C0003CB2010070B506460D4609480121FFF7CC
:1048D000C7FD044650B1067207222946883013F0FE
:1048E0008DF80123A370034BC4F8A030204670BD9F
:1048F000D00B00201800280070B505460A480E4667
:1049000013F09FFD044620B18378012B04D013F0EF
:10491000B4FD0024204670BD3246294613F0F4FD54
:104920000028F7D12046F2E7D00B0020F8B5054665
:104930000E480E46174613F084FD044620B18378D6
:10494000012B03D013F099FD00240DE036B132465F
:10495000294613F0D9FD08B92046F3E7A37ABB42F4
:10496000FAD1237AAB42F7D12046F8BDD00B002014
:1049700038B5044608460D4613F0A0FA48B3164B66
:1049800093F8D030990707D4E37883B129462046BD
:10499000BDE8384000F0B0B994F8AD309A07F3D5CF
:1049A000BFF35B8F6368BFF35B8F5B05ECD4294675
:1049B000204613F0D1FD58B92B88A4F8A0306B889D
:1049C000A4F8A230AB88A4F8A830EB88A4F8AA30E9
:1049D00038BD6FF01500FBE700000020F7B510F8B8
:1049E0004E3C0446A0F15806FBB9304613F009FED0
:1049F000344B1D684DB9344D344FBD420DD3304654
:104A000003B0BDE8F04013F038BD6B681BB114F87B
:104A10004F1C304698472D69ECE76B681BB114F8C2
:104A20004F1C304698471435E7E710F8563C012BE9
:104A300030D1BFF35B8FA0F1540555E8003F23F45C
:104A4000007245E800210029F7D1BFF35B8F9B0579
:104A500022D5A36C00936946236D01933046FFF77E
:104A600087FF58B9BFF35B8F55E8003F23F480738D
:104A700045E80032002AF7D1BFF35B8FBFF35B8FAD
:104A800055E8003F43F0800345E80032002AF7D1A3
:104A9000BFF35B8F03B0F0BD0D4A106851686B46E1
:104AA00003C369463046FFF763FF0028E6D1BFF332
:104AB0005B8F55E8003F43F4807345E80032002ADD
:104AC000DAD0F6E74C12002028B201003CB2010017
:104AD000B0B3010001460148FFF75CBE8009002029
:104AE0002DE9F047837A054693B9BFF35B8F031D29
:104AF00053E8002F22F0400143E80014002CF7D1C6
:104B0000BFF35B8F530603D5BDE8F04713F029BC14
:104B100005F1380015F013FE044660B9334A3449F4
:104B200034484FF45D7312F0DCFC404080F3118890
:104B30004FF0030002DF204614F095FEDFF8B89036
:104B4000028AB9F8FC309A420446027F07D832B98B
:104B5000022321462846FFF7B3FB064630E01746FE
:104B60004FF0000A228AB9F8FC309A4204D8012397
:104B7000237700220323ECE74FF0FF334FF0FF329F
:104B80000020FFF7A7FFAB7A072B804606D00EF078
:104B9000B3FB2046BDE8F0470EF0AEBBC0F818A04E
:104BA00080F81CA002463B4621462846FFF788FBBA
:104BB0000646B8B107F00107277740460EF09CFB88
:104BC00020460EF099FB05360ED1A6690023A3619D
:104BD00020460EF091FB3EB131462846BDE8F04735
:104BE000FFF758BB0127BDE7BDE8F08724CD0100E2
:104BF000A8CD010026CC01000000002010B50C4813
:104C000015F05CFD0B490A4815F084FD0A49084877
:104C100015F080FD0949064815F07CFD00F0F0FD17
:104C200014F015FE044608B913F075FD204610BDBA
:104C3000100900201C1200202C1200203C12002021
:104C4000044B186818B9044A5A600B6070476FF03B
:104C50000B00704750120020D8B50100F7B5244D65
:104C6000244F04460026BD4201D303B0F0BD6B685B
:104C700001A920469847002834DB019B2A889A82A4
:104C80009A8403F11002A868BFF35B8F52E8001FFB
:104C900042E8006CBCF1000FF8D1BFF35B8F9E605F
:104CA000616D03F10802F9B9C4E914221C60D860EF
:104CB000019843681B6803B19847019BBFF35B8F62
:104CC000103353E8001F41F0010143E80012002AAD
:104CD000F7D1BFF35B8F01984368DB6913B100F133
:104CE000100198470C35BEE70A606265DEE700BF39
:104CF00004B2010028B2010073B5174B0E461978B3
:104D00000131C9B2012938BF01210546082212200C
:104D1000197013F04AFC0446D0B108210C3014F08D
:104D2000D8FD3388038073884380B3888380F388F9
:104D3000C3800023284600932246052113F07CFC03
:104D4000054610B120460EF0D7FA284602B070BDD5
:104D50006FF00B05F9E700BF3026002023281FD88D
:104D60001A2804D8431E182B0ED906207047A0F12C
:104D70001B03082B1ED8DFE803F0051D1B231D199C
:104D8000251D0500032070470F4A012383401A4068
:104D9000C2B90E4A1A40002A14BF012006207047EB
:104DA00000F07F03522B05D100207047012070478F
:104DB0000520704710F0400F0CBF06200020704700
:104DC0000420704702207047AAAA8A025455450160
:104DD00007B50438019001A9024815F0B3FB03B0F0
:104DE0005DF804FBC008002010B500210446142221
:104DF00012F00FFE21460248BDE8104015F08ABCB3
:104E0000F80800202DE9F7430646D1F81880CB6852
:104E10000C463430022113F0A3FC002839D01B7853
:104E2000D22B10D133682146186814F00DFD0546C9
:104E300048B1A069FFF7D8FF20460EF05DFA28467A
:104E400003B0BDE8F08304F10C0014F079FDB4F870
:104E50001090C8F8006033681D68E368074618784A
:104E6000FFF77CFF052896BF0B4B0C4B53F8203007
:104E7000CDF8008028462246042113F0DDFB0546CC
:104E80000028DCD06369A4F8109013FA87F7E76074
:104E9000D5E76FF01505D2E700B60100498E010095
:104EA00010B500F130030446BFF35B8F53E8001FD9
:104EB00041F0040143E80012002AF7D1BFF35B8FF1
:104EC0001723E384E382201F13F0AAFD04F15400AA
:104ED000034915F0FFFC2068BDE8104001F098BAC6
:104EE000619001002DE9FF4105460E464FF0000894
:104EF0004FF42053006817688DF8088002A9144603
:104F0000ADF80A3012F0A3FDA0B142F60103286803
:104F10008DF80C8003A9ADF80E3012F098FD48B161
:104F200023691BB15A88B24200D25E80012004B0CE
:104F3000BDE8F0816168286812F089FD10B1002396
:104F40002361F3E7E368A0681A7832B17B8D018AA8
:104F50005B1A934201DA0020E9E704210C3014F0D7
:104F6000B8FC2061068023695E80084B00930194A1
:104F7000A26800232946384613F0AEFD0028EADB7C
:104F80002069003818BF0120D1E700BF878A0100DF
:104F90002DE9F743176805468846006851687E6822
:104FA000144612F054FD814600283CD1304695222B
:104FB000294614F000FB0646207540B1E3681B78D3
:104FC0000BB184F81490002003B0BDE8F083A06812
:104FD00014F04DFC02210C3014F07BFC134B2061CB
:104FE000A0F8008000930194A26833462946384611
:104FF00013F072FD002807DA10F1FF0F26BF4042C0
:10500000C0B20E202075DEE72369002BDBD0A0683C
:1050100013F08CFB7B8D181AE3681B78984294BFC1
:1050200000200120D0E70120CEE700BF3D8701002E
:10503000F7B5002304460E4629480022694610F0C1
:1050400019FD0546002843D111F052FC254B294695
:1050500018602C22009812F0DCFC009B22481C6097
:10506000009C0195C4E90155C4E9095500220023BB
:1050700001A910F0FFFC054650BB014690220198A3
:1050800012F0C7FC0198194B83603C3015F016FBF9
:10509000019BBFF35B8F343353E8002F43E800518B
:1050A0000029F9D1BFF35B8F019B1C60636A019FEC
:1050B0001BB904F10C0015F001FB626AC7F88820E7
:1050C000A26A07F18803636202B9A362019B23B954
:1050D0006FF00B05284603B0F0BD04333360F9E7E9
:1050E000A4080020BC120020C0080020F00100200D
:1050F000F8B5438D01329A420D4622D80846FFF793
:105100002DFE022820D004281ED04FF0FF364FF08D
:10511000FF37002132463B46084613F08AFA044620
:1051200078B111F0E5FB0E4B83420E4807BF002219
:10513000002332463B4610F057FE48B920460EF099
:10514000DBF800242046F8BD4FF470260027E0E786
:10515000A061012104F10C0014F0BBFB0570F1E724
:1051600010110020F80800202DE9F84F0B8A0546A1
:105170000C46002B5DD0012104F10C0014F0D0FB93
:1051800055F8043C8046002B53D001782B4E2F1F3E
:10519000002316F833208A424FEAC30A06EBC30BFA
:1051A0001ED19BF80290B9F1010F29D1002105F120
:1051B000300013F046FD00283BD1228A9BF80130D5
:1051C0009A4239D356442146736838469847B9F114
:1051D000010F03462DD160B398F8001049B30AE0DF
:1051E00001330E2BD5D10846FFF7B8FD08B30528CB
:1051F0001FD0F1B106230022384613F080FE18E0DC
:10520000B9F1050F0AD0228A9BF801309A4210D3D7
:10521000DBF804302146384698470AE0012105F1C1
:10522000300013F00EFD20B99BF80120238A9A422A
:10523000C8D90020BDE8F88F0423CDE718B60100D7
:10524000F0B51E4603680D46003987B0044618BF06
:1052500001211868174614F08CFA48B9052104F1A9
:10526000340013F0EEFC002848D0002007B0F0BD59
:10527000002E45D018220021684612F0CAFB67BBF9
:105280002368204A1B6800930023ADF812300C9B62
:105290000393BDF83430ADF8103001238DF814308D
:1052A00031466B4630468DF8085013F0C0FA9DF831
:1052B0001430E3B1002FD8D0019B9869FFF794FD1B
:1052C00001980EF019F89DF81430002DCDD032461B
:1052D0002946204613F013FEC7E700223946204630
:1052E000FFF706FF01900028CAD10E20BEE7019902
:1052F0000029BAD0204613F0A5FAB6E71220B5E788
:105300000120B3E7CD8701002DE9F0410E8A043E6C
:10531000F6B2022E04468CB0084601D0102E6AD197
:1053200004210C3014F0FCFA0DF1080805884788B8
:10533000011D3246404612F0B8FB00285DD0002D1A
:105340003AD00026002F36D0BD4235D84FF4205336
:1053500001A940468DF80460ADF8063012F077FBE5
:1053600070BB66681422002107A812F052FB0122CC
:105370001121304613F006FE099000283DD001218E
:105380000C30CDE9074814F0A4FA00230A901C4A17
:10539000037039460B93284607AB13F048FA0A9B73
:1053A0001B781BBB099B9869FFF71EFD09980DF040
:1053B000A3FF0A2301E03D4601232A4610210EE007
:1053C00042F6010307A940468DF81C60ADF81E3077
:1053D00012F03DFB0028C4D010232A46194620466F
:1053E00013F08DFD00200CB0BDE8F0810999204636
:1053F00013F028FAF6E70420F5E70E20F3E700BFE4
:10540000E54E00002DE9F043466885B004460D46A0
:105410003046012114F0ADF950B9052104F13400F2
:1054200013F00FFC00283BD1122005B0BDE8F0833B
:1054300010220021684612F0ECFA002221213046A9
:1054400013F0A0FD029068B3DFF85C90009405F1C2
:105450000C074FF001082B8A012B04D80299204633
:1054600013F0F0F91CE0384614F062FA6B464A4635
:10547000014606468DF80C8013F0D9F99DF80C30E2
:10548000002BE8D0029B9869FFF7AEFC02980DF064
:1054900033FF9DF80C3032462021204613F02FFDBB
:1054A0000020C2E70E20C0E7B38C01002DE9F043D5
:1054B000466885B004460D463046012114F059F97E
:1054C00050B9052104F1340013F0BBFB00283BD197
:1054D000122005B0BDE8F08310220021684612F0CA
:1054E00098FA00220F21304613F04CFD029068B369
:1054F000DFF85C90009405F10C074FF001082B8A4F
:10550000012B04D80299204613F09CF91CE0384680
:1055100014F00EFA6B464A46014606468DF80C809A
:1055200013F085F99DF80C30002BE8D0029B9869A8
:10553000FFF75AFC02980DF0DFFE9DF80C30324662
:105540000E21204613F0DBFC0020C2E70E20C0E74E
:105550006D8C01002DE9FF41D0F8048004460E4611
:105560004046012117461D4614F003F948B90521AC
:1055700004F1340013F065FB78BB122004B0BDE8E1
:10558000F0818DB310220021684612F042FA002209
:105590003946404613F0F6FC029038B3BDF8283087
:1055A000ADF8043001238DF80C30114A00946B469D
:1055B0002946284613F03BF99DF80C307BB1029B3D
:1055C0009869FFF711FC02980DF096FE9DF80C30DB
:1055D0002A463146204613F092FC0020CEE702997D
:1055E000204613F02FF9F8E70120C7E70E20C5E7A2
:1055F0006D8C01002DE9F0410D8A043DEDB2022DC4
:1056000004468CB0084601D0102D50D104210C3036
:1056100014F086F90DF1040806884788011D2A4612
:10562000404612F042FA88B19EB18FB1B74210D312
:105630001822656800210DEB020012F0EAF9012240
:105640000921284613F09EFC089060B90E2007E05F
:105650003E46012332460821204613F050FC00202C
:105660000CB0BDE8F08101210C30CDE9064814F002
:1056700030F90023099003700A238DF82C300D4A6D
:1056800006AB3946304613F0D2F89DF82C304BB1BA
:10569000089B9869FFF7A8FB08980DF02DFE9DF870
:1056A0002C30D7E70899204613F0CCF8D7E7042030
:1056B000D6E700BF914F00002DE9F0470F4686B0B6
:1056C0000446062107F10C0014F02AF90588B0F809
:1056D00002808288D7F80C90C5B10023B8F1000F82
:1056E00013D0454512D88DF800308DF8043001A94B
:1056F0004FF420536846ADF80220ADF8063012F0A2
:10570000A6F9064660B10A2301E0454601232A4670
:105710000621204613F0F3FB002006B0BDE8F08719
:10572000D4F804A03F7C0146142201A812F071F9BC
:1057300032460721504613F025FC0290F8B10A23A7
:105740008DF815300F4A019401AB41462846CDE94A
:1057500003698DF8147013F06AF89DF815304BB199
:10576000029B9869FFF740FB02980DF0C5FD9DF87C
:105770001530CCE70299204613F064F8CCE70E20F0
:10578000CBE700BF61880100F0B5CB681D885E885B
:1057900085B0044695B186B1B5420FD8476810224E
:1057A0000021684612F035F900220521384613F031
:1057B000E9FB019058B90E2007E0354601232A463F
:1057C0000421204613F09BFB002005B0F0BD6B4682
:1057D0000A4A00943146284613F029F8029B43B93F
:1057E000019B9869FFF700FB01980DF085FD0A23E6
:1057F000E5E70199204613F025F8E5E789890100DE
:1058000038B50B4C0B4D204614F058FF2946204666
:1058100014F080FF05F11401204614F07BFF05F120
:105820002801204614F076FFBDE8384000F046BA63
:10583000F80800208012002037B5002305460C46EA
:10584000019311F055F80B4B1B68834204BF0025F0
:105850002C4601A908482A46234610F00BF90146B8
:1058600030B90198102212F0D4F8019803B030BD7D
:105870000020FBE7BC120020DC08002007B583688D
:1058800001904BB19869FFF7AFFA019B98680DF052
:1058900033FD019B00229A60034801A914F052FED7
:1058A00003B05DF804FB00BFDC0800202DE9F347DE
:1058B000044658300E4617461D4615F019F8A06BE1
:1058C00030B9206813F056FA002002B0BDE8F08726
:1058D000104B98424FF0000802D1C4F83880F0E72E
:1058E000D0F80490C0F80480A06BD0F80CA0FFF7AB
:1058F000C5FF2068C4F8388013F03CFAB9F1000FF6
:10590000E2D02068CDF800A000683B463246294628
:10591000C847D9E7C01200202DE9FF4150F8046CB8
:105920000446002E5AD000F1840106F1240013F041
:105930005EF9271F04F1380800220023404613F0C7
:105940008EFF054648BB636B2BB1024601460E2312
:105950003846FFF7ABFF002344F8043C022104F172
:10596000300013F05DF9736A002B37D1039603986A
:10597000002200230C3013F072FF0546A0B90398F3
:105980004568C5B9056003A9164814F0DBFD206819
:1059900004B0BDE8F04100F05FBDA869FFF724FA4C
:1059A00028460DF0A9FCC7E7A869FFF71DFA2846AD
:1059B0000DF0A2FCDBE782682B684360954208BFCC
:1059C00083606E6836B1EB680093002300681A4666
:1059D0000E21B0472846FFF751FFD0E704B0BDE8DD
:1059E000F08100BFA408002008B530B90749084875
:1059F00013F028FC38B1074808BD054A12F8011C0D
:105A000012F082FDF6E70020F6E700BFB4CB0100FC
:105A1000E9120020E812002010B5064C23788342DA
:105A200003D1601C13F00EFC08B9002010BD204605
:105A3000FCE700BF0E26002010B54A1C0C4638B10A
:105A4000097812F061FD08B1204610BD0020FCE786
:105A50000249104613F0F6FBF5E700BFB4CB010096
:105A60002DE9F8431E46BDF82030D1F80C80814660
:105A70000F46002B3DD1731E012B3DD8012E414610
:105A8000157818BF1588FFF7D7FF044680B915B9F8
:105A90003046BDE8F8834146FFF7CEFF044670B3B9
:105AA00009F18801013013F0E4FB99F80830237004
:105AB000D8F810308BB92581B8F80A30AB4203D042
:105AC0004146384613F04AFB002DE1D10D49601CD8
:105AD00013F0CFFB25702581DAE72A463946484680
